:100000001AC034C033C032C031C030C049C12EC064
:100010002EC12CC02BC02AC029C028C027C026C092
:1000200025C0F3C0F7C0FBC0FFC003C107C10BC1AF
:100030000FC113C117C111241FBECFE5D1E0DEBF30
:10004000CDBF10E0A0E6B0E0E6E4FDE002C0059020
:100050000D92AC36B107D9F720E0ACE6B0E001C0B4
:100060001D92AC37B207E1F773D36BC6C9CFD49AF0
:10007000DC988DE08A95F1F70000D69ADE989DE035
:100080009A95F1F70000D498DC9A8DE08A95F1F703
:100090000000D698DE9A9DE09A95F1F70000CE997F
:1000A00002C082E001C080E0CC9B81609DE09A9517
:1000B000F1F700009DE09A95F1F700009DE09A9518
:1000C000F1F700009DE09A95F1F700000895D69AA7
:1000D000DE988DE08A95F1F70000D49ADC988DE0E7
:1000E0008A95F1F700000895D698DE9AD498DC9AA4
:1000F000BEDF089598E088231CF0D69ADE9802C0EF
:10010000D698DE9A2DE02A95F1F70000D498DC9A73
:100110002DE02A95F1F70000D49ADC98880F9150D1
:1001200051F7D698DE9A8DE08A95F1F70000D498C1
:10013000DC9A2DE02A95F1F7000089B3D49ADC9877
:1001400086FB882780F90895282FD698DE9A98E0B4
:1001500080E0880FD498DC9A3DE03A95F1F70000F2
:10016000CE998160D49ADC983DE03A95F1F7000091
:10017000915079F7211103C0D69ADE9802C0D69823
:10018000DE9A9DE09A95F1F70000D498DC9A3DE064
:100190003A95F1F70000D49ADC989DE09A95F1F732
:1001A0000000D698DE9A089587B3876087BB8AB32C
:1001B000806A8ABB08958FB581608FBD8EB58B60D4
:1001C0008EBD8CB183608CB91DBC1CBC82E390E0F9
:1001D0009BBD8ABD089580B7836A80BF83B7816065
:1001E00083BF16BE8AEA8CBF0895E82F8BB3807F49
:1001F0008BBB8AB3807F8ABB8E2F90E08A309105BB
:10020000A8F5FC01EF5EFF4F09948AB383608ABBB7
:10021000D99A08958AB385608ABBDA9A08958AB319
:1002200085608ABBD89A08958AB389608ABBDB9AB5
:1002300008958AB389608ABBD89A08958AB3866084
:100240008ABBDA9A08958AB386608ABBD99A0895E0
:100250008AB38A608ABBDB9A08958AB38A608ABBB4
:10026000D99A08958AB383608ABBD89A08951F9259
:100270000F920FB60F9211248F938BB3807F8BBB9D
:100280008AB3807F8ABBDD9888B38C7F88BB81E08E
:10029000809375008F910F900FBE0F901F9018954F
:1002A0001F920F920FB60F9211242F933F934F93EB
:1002B0005F936F937F938F939F93AF93BF93EF93CE
:1002C000FF9380917800813001F118F08230D9F1EC
:1002D0004CC080917200813051F018F0823069F08A
:1002E00012C0809177006AE00AD57FDF0CC0809150
:1002F00076006AE004D579DF06C080916F006AE07D
:10030000FED4892F72DFDD9A30C080917200813077
:1003100059F018F0823079F014C0809177006AE0CB
:10032000EED4892F62DF0DC0809176006AE0E7D4B9
:10033000892F5BDF06C080916E006AE0E0D4892FD0
:1003400054DFC19A12C080917200813039F018F0E8
:10035000823039F009C085E048DF06C086E045DF1D
:1003600003C080916D0041DFC09A8091780091E0D8
:10037000980F90937800833010F010927800FF91DE
:10038000EF91BF91AF919F918F917F916F915F910D
:100390004F913F912F910F900FBE0F901F90189586
:1003A000CF93DF9394DE86E4A5DE83E2A3DE5FDEF7
:1003B0008FE493EC0197F1F700C0000088DE87E43A
:1003C00099DE80E0C1DED82F81E0BEDEC82F4FDE8F
:1003D0006C2F70E07D2B80E090E070D32AE939E942
:1003E00049E95FE3D7D2DF91CF9108950F931F932F
:1003F000CF93DF936CDE80E87DDE83EF7BDE37DE3C
:100400002FEB87E591E0215080409040E1F700C05C
:1004100000005DDE81E86EDE80E096DE182F81E070
:1004200093DEC82F24DE53DE80E864DE85EF62DED3
:100430001EDE8FE59AEE0197F1F700C0000047DE5F
:1004400081E858DE80E080DE082F81E07DDED82F55
:100450000EDE1F3FB1F1CF3FA1F10F3F91F1DF3F22
:1004600081F16C2F70E0712B80E090E027D320E0C9
:1004700030E040E857E3B4D322E538EB4FE253E4F1
:10048000AFD326E636E64BE352E41FD2EBD26093BD
:1004900077006D2F70E0702B80E090E00FD320E0AC
:1004A00030E040E857E39CD320E030E04AEF52E4EC
:1004B00097D320E030E040EC50E407D2D3D26093F1
:1004C0007600DF91CF911F910F9108950F931F93A5
:1004D000CF93DF93FCDD80E80DDE80E00BDEC7DD2F
:1004E0008FE295E70197F1F700C00000F0DD81E8A9
:1004F00001DE80E029DE182F80E026DEC82F80E0B4
:1005000023DE082F81E020DED82FB1DD1F3F89F1E7
:10051000CF3F79F10F3F69F1DF3F59F16C2F70E068
:10052000712B80E090E0CAD220E030E040E857E351
:1005300057D320E030E045E253E452D320E030E0EE
:1005400040E252E4C2D18ED2609377006D2F70E00A
:10055000702B80E090E0B2D220E030E040E857E33A
:100560003FD320E030E048EC52E43AD37BD26093B2
:100570007600DF91CF911F910F910895809598E0BB
:1005800021E388231CF4880F822701C0880F915033
:10059000C1F7682788E091E366231CF4660F69279A
:1005A00001C0660F8150C1F781E0641380E00895B7
:1005B000EF92FF920F931F93CF93DF9388DD88E82C
:1005C00099DD8CE297DD86E095DD51DD2FE788E34C
:1005D00091E0215080409040E1F700C0000077DDBD
:1005E00089E888DD80E0B0DD182F80E0ADDDC82F20
:1005F00080E0AADD082F80E0A7DDF82E80E0A4DDF2
:10060000D82F81E0A1DDE82E32DD402F6C2F812F25
:10061000B5DF882389F14E2D6D2F8F2DAFDF882315
:1006200059F16C2F70E0712B80E090E047D220E010
:100630003FEF4FE757E4AED120E030E04FE253E424
:10064000CFD220E030E044E352E43FD10BD26093BC
:1006500077006D2F70E07F2980E090E02FD220E0BE
:100660003FEF4FE757E496D120E030E048EC52E40A
:10067000B7D2F8D160937600DF91CF911F910F919F
:10068000FF90EF90089580917A008F3F69F0282FB6
:1006900030E03BBD2ABDEFE1FEE43197F1F700C049
:1006A00000008B5F8F3F99F7089580917A008F3F0C
:1006B00081F08FEF282F30E03BBD2ABDEFE1FEE453
:1006C0003197F1F700C00000855090917A0098179B
:1006D00088F30895D098D89ABA9AC2982FEF34E345
:1006E0004CE0215030404040E1F700C0000080E085
:1006F00090E011D380937B008F3F21F460E080E095
:1007000090E011D3C89923C061E080917B008111F2
:1007100060E060937B0080E090E005D396E024E009
:1007200088B3822788BB8FE73AE146E081503040AA
:100730004040E1F700C00000915091F78FEF94E343
:100740002CE0815090402040E1F700C00000089567
:10075000C1DF2ADDC9DC80917900813031F018F0E9
:10076000823029F005C042DE03C0B0DE01C020DFC8
:1007700032DD21DD7894D1E012E0C9E00F2EF8ECF3
:10078000EF2EF02D0F2EF2E3FF2EF02D06E9209133
:10079000730030917400809175008823E1F310920A
:1007A00075002F5F3F4F293C81E03807A0F310927E
:1007B00074001092730080916A008F5F80936A00CA
:1007C00020917000309171002F5F3F4F3093710086
:1007D00020937000813021F456DF1092720065DFA3
:1007E00080916A00863021F44EDFD09372005DDF85
:1007F00080916A008B3079F480917900813031F0FA
:1008000018F0823029F005C0F1DD03C05FDE01C0C1
:10081000CFDE10926A008091700090917100803B51
:10082000944058F110927100109270001093720071
:1008300024E110926F0080E0E82FF0E0E05AFF4FD3
:10084000908190936D003C2F381B30936E008FEF9A
:1008500096E731E0815090403040E1F700C0000061
:1008600080916F008F5F80936F008A3028F3215052
:1008700001F710927200D0936A0092DD20E030E020
:1008800040E450E4A9D118164CF4F0927A0080911B
:100890007B00813059F400936C0008C0E0927A002C
:1008A00080917B00813011F410926C0080917A006D
:1008B00090E09BBD8ABD80916C0086BF86B7811198
:1008C00002C0BA9864CFBA9A62CF5058BB27AA2701
:1008D0000ED048C139D130F03ED120F031F49F3FE5
:1008E00011F41EF42EC10EF4E095E7FB24C1E92FAC
:1008F0004AD180F3BA17620773078407950718F087
:1009000071F49EF562C10EF4E0950B2EBA2FA02D66
:100910000B01B90190010C01CA01A0011124FF27AC
:10092000591B99F0593F50F4503E68F11A16F040A7
:10093000A22F232F342F4427585FF3CF46953795A6
:100940002795A795F0405395C9F77EF41F16BA0B6B
:10095000620B730B840BBAF09150A1F0FF0FBB1F19
:10096000661F771F881FC2F70EC0BA0F621F731F62
:10097000841F48F4879577956795B795F7959E3FBF
:1009800008F0B3CF9395880F08F09927EE0F97954D
:10099000879508950CD0E6C0DED040F0D5D030F079
:1009A00021F45F3F19F0C7C0511110C1CAC0EBD08C
:1009B00098F39923C9F35523B1F3951B550BBB2726
:1009C000AA2762177307840738F09F5F5F4F220FD3
:1009D000331F441FAA1FA9F333D00E2E3AF0E0E8CC
:1009E00030D091505040E695001CCAF729D0FE2F18
:1009F00027D0660F771F881FBB1F261737074807AA
:100A0000AB07B0E809F0BB0B802DBF01FF2793585F
:100A10005F4F2AF09E3F510568F08DC0D7C05F3F01
:100A2000ECF3983EDCF3869577956795B795F79547
:100A30009F5FC9F7880F911D9695879597F908953F
:100A4000E1E0660F771F881FBB1F621773078407DB
:100A5000BA0720F0621B730B840BBA0BEE1F88F7EA
:100A6000E095089598D088F09F5790F0B92F992776
:100A7000B751A0F0D1F0660F771F881F991F1AF0A9
:100A8000BA95C9F712C0B13081F09FD0B1E0089596
:100A90009CC0672F782F8827B85F39F0B93FCCF317
:100AA000869577956795B395D9F73EF4909580959F
:100AB000709561957F4F8F4F9F4F0895E89409C0BF
:100AC00097FB3EF490958095709561957F4F8F4F81
:100AD0009F4F9923A9F0F92F96E9BB279395F69597
:100AE000879577956795B795F111F8CFFAF4BB0F15
:100AF00011F460FF1BC06F5F7F4F8F4F9F4F16C079
:100B0000882311F096E911C0772321F09EE8872F02
:100B1000762F05C0662371F096E8862F70E060E0BE
:100B20002AF09A95660F771F881FDAF7880F969537
:100B3000879597F9089597F99F6780E870E060E0DE
:100B400008959FEF80EC089500240A941616170666
:100B500018060906089500240A94121613061406AE
:100B600005060895092E0394000C11F4882352F011
:100B7000BB0F40F4BF2B11F460FF04C06F5F7F4FC9
:100B80008F4F9F4F089557FD9058440F551F59F0B0
:100B90005F3F71F04795880F97FB991F61F09F3F6A
:100BA00079F087950895121613061406551FF2CF93
:100BB0004695F1DF08C0161617061806991FF1CFE3
:100BC00086957105610508940895E894BB2766270A
:100BD0007727CB0197F908956ED008F48FEF089529
:100BE0000AD0C0CFB1DF28F0B6DF18F0952309F0A6
:100BF000A2CFA7CFEBCFC7DFA8F39923D9F3552313
:100C0000C9F3950F50E0551FAA27EE27FF27BB27F2
:100C100000240894679520F4E20FF31FB41F0A1E06
:100C2000220F331F441FAA1F6695A9F7779530F44A
:100C3000F30FB41F0A1E121E08F46395330F441FEE
:100C4000AA1F221F769599F7879520F4B40F0A1EE4
:100C5000121E631F440FAA1F221F331F8695A9F778
:100C6000862F712D602D11249F5750408AF0E1F09E
:100C700088234AF0EE0FFF1FBB1F661F771F881FD8
:100C800091505040A9F79E3F510570F054CF9ECF30
:100C90005F3FECF3983EDCF3869577956795B795C3
:100CA000F795E7959F5FC1F7FE2B880F911D9695ED
:100CB000879597F90895990F0008550FAA0BE0E85A
:100CC000FEEF16161706E807F907C0F0121613060E
:100CD000E407F50798F0621B730B840B950B39F44E
:100CE0000A2661F0232B242B252B21F408950A26B4
:100CF00009F4A140A6958FEF811D811D0895991BD0
:100D000079E004C0991F961708F0961B881F7A9502
:100D1000C9F780950895E199FECF1FBA8EBBE09A7E
:100D200099278DB30895262FE199FECF1CBA1FBADB
:100D30008EBB2DBB0FB6F894E29AE19A0FBE0196D6
:060D40000895F894FFCFB6
:0C0D460000090803040506070809010065
:00000001FF
